:10000000A4C00000BDC00000BBC00000B9C000001B
:10001000B7C00000B5C00000B3C00000B1C0000010
:10002000AFC00000ADC00000ABC0000092C2000035
:10003000A7C00000A5C00000A3C00000A5C000002C
:100040009FC000009DC000009BC00000CBC000000E
:1000500097C0000095C00000A1C0000091C0000042
:100060008FC000008DC000008BC0000089C0000060
:1000700087C000001201100100000008D0166806B9
:1000800024000102DC0109026500020100C03209FE
:100090000400000001010000092401000109000121
:1000A00001090401000201030000072401000141CD
:1000B00000062402010100062402020200092403B2
:1000C00001030102010009240302040101010009E6
:1000D000050102400001000005250101010905821A
:1000E0000240000100000525010103040309042C5E
:1000F0000343007500720069006F007500730020F3
:100100000049006E00760065006E0074006F00729A
:10011000002C0020004C004C00430000002A035635
:10012000004D006500740065007200200045004528
:1001300000500052004F004D00200057007200692F
:100140000074006500720000000011241FBECFEF94
:10015000D2E0DEBFCDBF11E0A0E0B1E0E2ECFDE017
:1001600002C005900D92A03FB107D9F712E0A0EFB1
:10017000B1E001C01D92AD30B107E1F707D11FC654
:100180003FCF0895089508951F920F920FB60F92D2
:1001900011240F900FBE0F901F9018951F920F9271
:1001A0000FB60F9211242F933F934F935F936F934A
:1001B0007F938F939F93AF93BF93EF93FF938EB5EE
:1001C000F9D4FF91EF91BF91AF919F918F917F9162
:1001D0006F915F914F913F912F910F900FBE0F90B4
:1001E0001F9018951F920F920FB60F9211242F9304
:1001F0003F934F935F936F937F938F939F93AF93AF
:10020000BF93EF93FF935E98209100022530A0F4F6
:100210008091E401843681F081E090E002C0880F93
:10022000991F2A95E2F7809571D5E0910002F0E0E0
:10023000E051FE4F808103C080E068D580E066D544
:100240005E9A809100028F5F809300029091E4019A
:10025000981710F410920002FF91EF91BF91AF91A7
:100260009F918F917F916F915F914F913F912F91CE
:100270000F900FBE0F901F90189585EE91E05DC412
:10028000EF92FF921F93CF93DF9384B7877F84BF52
:1002900088E10FB6F89480936000109260000FBE62
:1002A00090E080E80FB6F89480936100909361002D
:1002B0000FBE5F9ADFD43ED180ED97E09093890026
:1002C0008093880080916F00826080936F0080919E
:1002D000810082608093810080918100886080939A
:1002E000810085B5836085BD84B5826084BD82E36D
:1002F00087BD80916E00826080936E0078941FEFBE
:10030000812F58D407D483E699E10197F1F700C013
:1003100000001150A9F7549A5C9A4F9901C0CAD4B1
:10032000239AF894C0E0D0E00AC0FE01EE5FFE4FD1
:10033000CE01608136D5F999FECFECD3219680911C
:10034000000190910101C817D90778F3789485E5E9
:100350008093F0018093F1018093F2018093F30187
:100360008093F401239A83E699E10197F1F700C0A5
:1003700000001FEFCFD383E699E10197F1F700C0AA
:1003800000001150B9F796D4C5D3FECF75D478DFED
:10039000C1D3FECF923049F0933061F0913009F52E
:1003A00022E130E084E790E020C025E630E086E8F6
:1003B00090E01BC0813051F0813018F0823089F418
:1003C0000AC08BEE90E0FC01249109C08FEE90E012
:1003D000FC01249104C08DE191E0FC01249130E006
:1003E00004C020E030E080E090E0FA019183808357
:1003F000C9010895982F2CC09093E900981721F413
:10040000242F762F50E006C07091EC002091ED0073
:100410005091F00021FF1BC03091EB003E7F3093E4
:10042000EB003091ED0032703093ED003091EB0035
:1004300031603093EB007093EC002093ED0050930B
:10044000F0002091EE0027FD02C080E008959F5F3C
:10045000953090F28093E90081E008958091050243
:1004600088239CF404C0809104028823B9F0809111
:10047000E80082FFF8CF8091E8008B778093E80056
:10048000089580910402882349F08091E80080FF5C
:10049000F8CF8091E8008E778093E800089553D0DC
:1004A00055D0E0EEF0E0808181608083E8EDF0E0FF
:1004B00080818F77808319BCE3E6F0E080818160E2
:1004C00080831092030208953ED040D08091D800DE
:1004D000982F9F779093D80080688093D800809160
:1004E000D8008F7D8093D80019BC89B5826089BD02
:1004F00009B400FEFDCF1092040210920202109285
:10050000010280E060E042E075DF8091E1008E7FD3
:100510008093E1008091E20081608093E20080910D
:10052000E20088608093E2008091E0008E7F8093FB
:10053000E0000895E3E6F0E080818E7F808381E033
:1005400080930302C1CF1092E20008951092E1005F
:1005500008951F920F920FB60F9211242F933F937D
:100560004F935F936F937F938F939F93AF93BF93BB
:10057000EF93FF938091E10082FF0AC08091E20037
:1005800082FF06C08091E1008B7F8093E10007D25B
:100590008091E10080FF17C08091E20080FF13C0CE
:1005A0008091E2008E7F8093E2008091E200806182
:1005B0008093E2008091D80080628093D80019BCBB
:1005C00010920402DFDD8091E10084FF2DC0809154
:1005D000E20084FF29C019BC89B5826089BD09B4D5
:1005E00000FEFDCF8091D8008F7D8093D800809150
:1005F000E1008F7E8093E1008091E2008F7E809306
:10060000E2008091E20081608093E200809102022A
:10061000882331F48091E30087FD02C081E001C0AE
:1006200084E080930402ADDD8091E10083FF22C06D
:100630008091E20083FF1EC08091E100877F80935C
:10064000E10082E080930402109202028091E100B6
:100650008E7F8093E1008091E2008E7F8093E200A4
:100660008091E20080618093E20080E060E042E0FF
:10067000C1DE95D1FF91EF91BF91AF919F918F9185
:100680007F916F915F914F913F912F910F900FBE8E
:100690000F901F9018950F931F93DF93CF93CDB7B3
:1006A000DEB7AC970FB6F894DEBF0FBECDBF80911A
:1006B000F100809305028091F100809306029091F1
:1006C000F1008091F100E7E0F2E09093070281836E
:1006D0009091F1008091F1009093090283839091B1
:1006E000F1008091F10090930B0285834CDD8091A5
:1006F000E80083FF3BC1909105028091060285309E
:1007000009F489C0863040F48130C1F1813070F045
:10071000833009F02BC132C0883009F4F9C0893028
:1007200009F408C1863009F021C19BC0903821F03E
:10073000923809F01BC108C080910102882311F092
:1007400082E012C080E010C080910902877080931F
:10075000E9008091EB0090E025E0969587952A9539
:10076000E1F781701092E9009091E800977F9093F3
:10077000E8008093F1001092F100D5C0992319F0A0
:10078000923009F0F3C0292F30E02F71307021151D
:10079000310529F02230310509F0E8C00CC09091F4
:1007A0000702913009F0E2C010920102833069F52E
:1007B000909301022AC090910702992331F59091FC
:1007C0000902977009F4D2C09093E9002091EB00E0
:1007D00020FF1BC0833021F48091EB00806213C0A6
:1007E0008091EB0080618093EB0021E030E002C05B
:1007F000220F331F9A95E2F72093EA001092EA0045
:100800008091EB0088608093EB001092E90080916A
:10081000E800877F8BC0992309F0A8C010910702D8
:100820001F770FB7F8948091E800877F8093E800E6
:1008300015DE8091E80080FFFCCF8091E300807896
:10084000812B8093E3008091E30080688093E30034
:10085000112311F482E001C083E0809304020FBFF2
:1008600085C09058923008F081C080910702909125
:10087000080223E08C3D920799F583E08C838AE29D
:100880008B836FB7F894DE01159680E090E02EE040
:1008900071E2422F50E0FA0170935700349180FFCB
:1008A00003C032953F702F5F3F70432F50E03A30C6
:1008B00018F0495C5F4F02C0405D5F4F4D935D9300
:1008C00001968431910529F76FBF8091E800877FF9
:1008D0008093E800CE0103966AE270E061D012C016
:1008E00060910902AE014F5F5F4F54DDBC0100977C
:1008F00009F43CC08091E800877F8093E8008981FB
:100900009A81A9D08091E8008B778093E8002EC06F
:10091000903861F58091E800877F8093E8008091AE
:1009200002028093F1008091E8008E778093E800C6
:1009300095DD1CC09923D1F4909107029230B0F458
:100940008091E800877F8093E8009093020286DD23
:1009500080910202882331F48091E30087FD02C078
:1009600081E001C084E08093040287DC8091E8008C
:1009700083FF0AC08091EB0080628093EB0080913E
:10098000E800877F8093E800AC960FB6F894DEBF4E
:100990000FBECDBFCF91DF911F910F9108950895A4
:1009A00020910B0230910C022617370718F4FC0136
:1009B00040E03BC06115710511F09B01F8CF20911B
:1009C000E8002E772093E80020E030E0F0CF80911F
:1009D00004028823E1F18530E1F18091E80083FF92
:1009E00002C081E008958091E80082FD2AC08091D4
:1009F000E80080FF1AC08091F20090E006C04191AB
:100A00004093F1002150304001962115310519F035
:100A100088309105A0F340E08830910509F441E069
:100A20009091E8009E779093E8002115310579F6C2
:100A3000442369F606C080910402882341F0853082
:100A400041F08091E80082FFF6CF80E0089582E0D7
:100A5000089583E0089520910B0230910C0226172F
:100A6000370720F4E82FF92F40E03EC061157105EB
:100A700011F09B01F7CF2091E8002E772093E8003A
:100A800020E030E0EFCF80910402882309F43EC0DB
:100A9000853009F43DC08091E80083FF02C081E009
:100AA00008958091E80082FD2BC08091E80080FFCE
:100AB0001BC08091F20090E007C044914093F10088
:100AC00031962150304001962115310519F08830BA
:100AD000910598F340E08830910509F441E0809158
:100AE000E8008E778093E8002115310561F64423F4
:100AF00051F606C080910402882341F0853041F010
:100B00008091E80082FFF6CF80E0089582E00895AA
:100B100083E008951F9380910402882361F010916F
:100B2000E9001092E9008091E80083FF01C0B3DD85
:100B300017701093E9001F9108951F93CF93DF93CF
:100B4000EC0111E08981181729F4EA81FB818C817D
:100B500061E007C08D811817E1F4EE81FF8188857F
:100B600060E0882311F440E001C044E028E030E078
:100B700080E003C08F5F220F331F2E173F07D0F393
:100B8000606842608295807F482B812F33DC882308
:100B900021F01F5F1530B1F681E0DF91CF911F91F9
:100BA000089590E066E270E0EAD088569F4F892F62
:100BB00090E00895F6DF882359F41092F001109226
:100BC000F1011092F2011092F3011092F4010895D4
:100BD0002091D801217019F096E2981B892F982F47
:100BE0009695969596958770492F50E0222331F47B
:100BF000E0EFF1E04E0F5F1F2FEF22C0E0EFF1E0DA
:100C00004E0F5F1F01C01192E417F507E1F7E92FBE
:100C1000F0E0E051FE4F2FEF30E002C0220F331F13
:100C20008A95E2F720839F5F8FEF06C0E92FF0E0FF
:100C3000E051FE4F80839F5F9530C0F3089521936C
:100C4000E417F507E1F7E92FF0E0E051FE4F2FEF51
:100C500030E002C0220F331F8A95E2F720952083EF
:100C600005C0E92FF0E0E051FE4F10829F5F953004
:100C7000C0F3089543C0089580910D0290910E0233
:100C8000A0910F02B091100285352AEA92072AEA54
:100C9000A20725E5B20769F410920D0210920E0228
:100CA00010920F0210921002E091EE01F091EF010C
:100CB00009950895F4DBF89480E0EFE3FFE13197C4
:100CC000F1F700C000008F5F8038B9F785E59AEA38
:100CD000AAEAB5E580930D0290930E02A0930F024D
:100CE000B09310022CE088E190E00FB6F894A8953C
:100CF000809360000FBE20936000FFCF8AB18166B1
:100D00008AB953988BB18E798BB9089587FF02C049
:100D10005D9A01C05D98589A589886FF02C05D9A06
:100D200001C05D98589A589885FF02C05D9A01C02D
:100D30005D98589A589884FF02C05D9A01C05D98EA
:100D4000589A589883FF02C05D9A01C05D98589ADE
:100D5000589882FF02C05D9A01C05D98589A5898D1
:100D600081FF02C05D9A01C05D98589A589880FF33
:100D700002C05D9A01C05D98589A58980895552709
:100D8000002480FF02C0060E571F660F771F6115F3
:100D9000710521F096958795009799F7952F802DED
:100DA0000895262FF999FECF1FBA92BD81BD20BDAF
:100DB0000FB6F894FA9AF99A0FBE01960895F8942E
:020DC000FFCF63
:100DC200D600020014111214154064640000084099
:100DD200061201100100000008D016680630010159
:100DE20002DC0109026500020100C03209040000B0
:100DF20000010100000924010001090001010904A8
:100E02000100020103000007240100014100062441
:100E12000201010006240202020009240301030167
:100E22000201000924030204010101000905010273
:100E32004000010000052501010109058202400070
:100E42000100000525010103040309042C034300EA
:100E52007500720069006F00750073002000490080
:100E62006E00760065006E0074006F0072002C0048
:100E720020004C004C00430000001C0356004D00B3
:100E82006500740065007200200031002E003300FE
:100E920030002000300000000200111214154064DE
:100EA2001000000000010240000001400000001C90
:00000001FF
