:1000000054C000006FC000006DC000006BC0000055
:1000100069C0000067C0000065C0000063C0000048
:1000200061C000005FC000005DC000000C946E1253
:1000300059C0000057C0000055C000000C94840A4D
:1000400051C000004FC000004DC000000C94B30A26
:1000500049C0000047C000000C948E0A43C0000055
:1000600041C000003FC000003DC000003BC0000098
:1000700039C00000500F4C0F3D0F390F350F310FB5
:100080002D0F290F250F210F1D0F1A0F180F140FF9
:10009000100F0C0F080F060F000FFC0EF80EF40ED9
:1000A000F00EEC0EE20EDE0EDB0E11241FBECFEFC3
:1000B000D2E0DEBFCDBF11E0A0E0B1E0E0E2F2E3CC
:1000C00002C005900D92AA34B107D9F712E0AAE454
:1000D000B1E001C01D92AF32B107E1F70E941F10DD
:1000E0000C940E198DCF3F939F933BB1982F909511
:1000F00039233BB938B1392338B9982F3AB1392B64
:100100003AB937B1392B37B9962F909535B1392394
:1001100035B934B1962F392B34B95B98539A27B03F
:100120003AB047B05AB02F93242F20954222522242
:100130002F915AB89F913F9108953F939F9347B84D
:1001400083B93AB85AB827B883B99F913F910895B7
:100150003F939F933BB1982F909539233BB938B18A
:10016000392338B9982F3AB1392B3AB937B1392BED
:1001700037B9962F909538B1392338B937B1962FC2
:10018000392B37B95B98539A27B03AB047B05AB079
:100190002F93242F2095422252222F915AB89F91BB
:1001A0003F9108953F939F9347B886B93AB85AB89C
:1001B00027B886B99F913F9108955B9A08955B98FF
:1001C0003AB80895EF92FF920F931F93CF93DF9366
:1001D000182FF62EF894E82FE695E695E695F0E0D0
:1001E000EE0FFF1FEF5DFE4F80912A0260912B0200
:1001F000408179DFC12FD0E0FE01EF5BFE4F00812F
:1002000010E0EE24E39416C0F8948F2D96DF8FB79C
:1002100090912902892B8FBF809140018F5F80933D
:100220004001823030F0823021F0833011F0E092D2
:1002300040011F5F101740F3F894BFDF1092850054
:1002400010928400B59A00B605FE18C08FB7909141
:100250002902892B8FBF07C080918400909185006F
:100260008050904290F4B59BF7CF8091860090919A
:100270008700CC0FDD1FCE53DE4F0DC0CC0FDD1F2E
:10028000CE53DE4F81E090E006C0CC0FDD1FCE5391
:10029000DE4F80E090E29983888391DF8FB7909161
:1002A0002902892B8FBFCDB7DEB7E6E00C949A18F0
:1002B000EF92FF920F931F93CF93DF93182FF62E99
:1002C000F894E82FE695E695E695F0E0EE0FFF1F2F
:1002D000EF5DFE4F80912A0260912C02408138DF51
:1002E000C12FD0E0FE01EF5BFE4F008110E0EE2455
:1002F000E39416C0F8948F2D55DF8FB790912902A3
:10030000892B8FBF809140018F5F809340018230A5
:1003100030F0823021F0833011F0E09240011F5F15
:10032000101740F3F89449DF109285001092840072
:10033000B59A00B605FE18C08FB790912902892B97
:100340008FBF07C0809184009091850080509042BB
:1003500090F4B59BF7CF8091860090918700CC0FE9
:10036000DD1FCE53DE4F0DC0CC0FDD1FCE53DE4F51
:1003700081E090E006C0CC0FDD1FCE53DE4F80E061
:1003800090E2998388831BDF8FB790912902892B94
:100390008FBFCDB7DEB7E6E00C949A18FC0181E47C
:1003A00094E19183808388E290E09383828380E369
:1003B00094E09583848308950F931F939091E801AF
:1003C000E92FF0E009EE11E053E0EE0FFF1F5A9520
:1003D000E1F7D801AE0FBF1F13964C9313970E0F82
:1003E0001F1F677015968C93159716968C93237024
:1003F000660F660F660F262BF80124839F5F90938C
:10040000E8011F910F910895EF92FF921F93CF93F0
:10041000DF93282FE82EFF24F701A3E0EE0FFF1F44
:10042000AA95E1F7E751FE4F6581838190E0009046
:10043000B90102C0959587950A94E2F7182F843088
:1004400008F414E08091E801281718F020E030E06B
:1004500036C0E70173E0CC0FDD1F7A95E1F7C35199
:10046000DE4F9881892F807C21F5862F1ED19C013B
:10047000412F50E016951695812F90E0841B950B27
:10048000821793071CF488818B7F8883882799279C
:10049000841B950B8217930794F0F70163E0EE0F2E
:1004A000FF1F6A95E1F7E351FE4F808184608083EE
:1004B00006C09B7F9883822F412F2DD79C01C901B5
:1004C000DF91CF911F91FF90EF900895FF920F93CE
:1004D0001F93CF93DF931092E6011092E5012091D4
:1004E00062013091630190936301809362014091B6
:1004F000640150916501421B530B480F591FFF24A3
:1005000003C0F394485C5040483C5105D0F75093E9
:100510006501409364018091E701882341F08F15C4
:1005200018F41092E70103C08F198093E701F2D30A
:10053000E091C001F091C101309709F0099510E0F8
:1005400000E005C0812F6F2DC5D0082B1F5F609183
:10055000E8011617B8F3002349F08091E501909166
:10056000E60191609093E6018093E5011092E2012B
:10057000A9EEB1E030E041E050E017C08C91887105
:1005800091F0E32FE695E695E695F0E0EE53FE4F09
:10059000832F8770EA0102C0CC0FDD1F8A95E2F736
:1005A00020A12C2B20A33F5F1896361738F380919B
:1005B000E5019091E601CDB7DEB7E5E00C949B181C
:1005C0001092E80110922E0284E08093BA0194E127
:1005D0009093BD0185E08093BE011092BC01909381
:1005E000BB0181E08093B90183E08093BF011DD3FB
:1005F0001092C1011092C00108951F9310E003C032
:10060000812F41D01F5F8091E8011817C8F31F9117
:1006100008951F9310E003C0812F35D01F5F809194
:10062000E8011817C8F3109263011092620137D3E2
:100630001F910895E82FF0E093E0EE0FFF1F9A95C9
:10064000E1F7DF01A751BE4F15962C91159716962D
:100650003C91169782E08C938091E5019091E601A0
:1006600082609093E6018093E501E551FE4F108290
:1006700080E806C0E22FF0E0EA59FE4F80832F5F4A
:100680003217C0F708951F93182FD4DFE12FF0E041
:1006900023E0EE0FFF1F2A95E1F7E751FE4F81E0BF
:1006A00080838FE081831F91089590E0FC0138964C
:1006B000A2ECB1E0EE0FFF1FEA0FFB1F880F991F9E
:1006C000A80FB91F208131818D919C91281B390B76
:1006D000C9010895A0E0B0E0E0E7F3E00C947618DB
:1006E000782EE62E91DE5C01C72DD0E0FE0173E08E
:1006F000EE0FFF1F7A95E1F7E351FE4F5081FE01A7
:1007000063E0EE0FFF1F6A95E1F7E751FE4F43816B
:10071000242F30E0852F837090E0019602C035953C
:1007200027958A95E2F7822F223008F482E0242F61
:1007300030E0B901681B7109FE0143E0EE0FFF1FB5
:100740004A95E1F7DF01A751BE4F8C91843009F43F
:10075000E7C0853030F4813071F0823009F05EC23C
:1007600059C0803109F491C1803209F42DC288301A
:1007700009F054C2EAC12091E5013091E6013260EE
:1007800015966C91159716967C9116978F01AD0171
:100790004F5F5F4F2AC0DA018C91A62FB0E08A30FC
:1007A00060F0AA0FBB1FFD01EE53FE4F80819181C7
:1007B000AE52BE4F8D939C9316C0AA0FBB1FED0186
:1007C000CE52DE4F88819981AE53BE4FED91FC91A0
:1007D000E817F90710F4019704C08E179F0720F45B
:1007E00001969983888328606F5F7617A0F630930F
:1007F000E6012093E501F801E751FE4F8181815028
:100800008183882311F4872D15DF8091BB018093AC
:10081000E70102C252FF05C080E28C9311961C9240
:10082000ECC1C501B7FE02C080E090E082179307DB
:1008300070F063E0CC0FDD1F6A95E1F7FE01E75130
:10084000FE4F84E08083C551DE4F1882DCC1EE206C
:1008500009F4E4C18091E701882309F0DFC1FE01BA
:1008600043E0EE0FFF1F4A95E1F7E751FE4F158178
:10087000D680F090BE01B0E8FB0E00E88091BD018B
:10088000081B6091E5017091E60130E8C32E40C07D
:10089000412F50E0EA01CC0FDD1FCE52DE4F288100
:1008A0003981FA01EE0FFF1FEE53FE4F0190F081E8
:1008B000E02D2E173F0760F4FA01EA59FE4F8081C0
:1008C0008E0D80838F1518F1C0822F5F3F4F0EC0B1
:1008D000DA01AA59BE4FE217F30760F48C918E1922
:1008E0008C930817A0F0CC92215030403983288394
:1008F00068600DC09C91913810F091509C93FA0162
:10090000EA59FE4F808187FD02C08F5F80831F5FA1
:10091000D11608F0BDCF7093E6016093E5017EC16A
:10092000C501B7FE02C080E090E08217930708F48B
:100930005BC18091BB018093E701DE0183E0AA0FD8
:10094000BB1F8A95E1F7A551BE4F8C918F5F8C93A9
:10095000FE0113E0EE0FFF1F1A95E1F7E351FE4F82
:10096000808190E088739070F3E096958795FA9572
:10097000E1F7682E882309F44DC0DD24CC247E01E4
:10098000E3E0EE0CFF1CEA95E1F7ECEEF1E0EE0E91
:10099000FF1E4D0139C0D714B1F10D2D10E0F80143
:1009A00073E0EE0FFF1F7A95E1F7E351FE4F808170
:1009B00090E08873907063E0969587956A95E1F76B
:1009C000681609F58D2D20DDF80153E0EE0FFF1FAD
:1009D0005A95E1F7E751FE4F2381821B9109D70118
:1009E0002C91A501421B5109481759071CF4D40149
:1009F0001C9207C0E081E03111F0E83021F4F401ED
:100A00001082CC24C394D3948091E801D81618F2B4
:100A1000CC2079F48091BA01882359F08091E501C6
:100A20009091E60198609093E6018093E50111E0D2
:100A300001C010E0FE0143E0EE0FFF1F4A95E1F711
:100A4000E551FE4F90818091BA01981708F4E7C0F4
:100A50008091E5019091E60183609093E601809397
:100A6000E50133E0CC0FDD1F3A95E1F7FE01E751D8
:100A7000FE4F80E180831182C351DE4F8881807CEC
:100A800009F4CDC0872D5ED3CAC0C501B7FE02C030
:100A900080E090E04091E5015091E60186179707CC
:100AA00078F493E0CC0FDD1F9A95E1F7C751DE4F44
:100AB00088E0888354605093E6014093E5013FC08D
:100AC00041605093E6014093E501FE0183E0EE0FA3
:100AD000FF1F8A95E1F7E551FE4F90818091BA01A1
:100AE000981710F49F5F9083FE0113E0EE0FFF1F35
:100AF0001A95E1F7E351FE4F8081807C11F0872D3C
:100B000046D39091BC01992369F0FE01B3E0EE0F4A
:100B1000FF1FBA95E1F7E751FE4F8181891720F455
:100B20008E0D818310E00CC0872DADDD8091E50135
:100B30009091E60192609093E6018093E50111E0C7
:100B40008091BB018093E7016AC08091BB018093D3
:100B5000E701FE01A3E0EE0FFF1FAA95E1F7E551C3
:100B6000FE4F8081882309F43FC0C501B7FE02C053
:100B700080E090E04091E5015091E6016817790727
:100B800088F4FE0173E0EE0FFF1F7A95E1F7E7515D
:100B9000FE4F80E1808341605093E6014093E50180
:100BA00010E006C054605093E6014093E50111E067
:100BB000FE0163E0EE0FFF1F6A95E1F7E551FE4F7E
:100BC0008081815080832BC011969C9111979F5FEB
:100BD00011969C9353E0CC0FDD1F5A95E1F7C3515A
:100BE000DE4F888182FD03C0872D24DD17C08091F0
:100BF000BF01981740F0872D46DD8091E501909167
:100C0000E601906105C08091E5019091E601946054
:100C10009093E6018093E50111E001C010E0812F7F
:100C2000CDB7DEB7EEE00C949218E1E4F1E080E499
:100C3000819391E0E934F907D9F70895FF920F9372
:100C40001F93CF93DF93EC0100E020C0802F90E052
:100C500023E0880F991F2A95E1F7FC01E351FE4F2D
:100C60002081207CFC0131F4E751FE4F8581FE019B
:100C700009950BC0E751FE4FF680158104C0812F06
:100C8000FE0109951F5FF116D0F70F5F8091E80113
:100C90000817E0F2CDB7DEB7E5E00C949B1881E0D1
:100CA0008093400110922A0210922B0210922C0283
:100CB00010922D028DE596E0C1CFE82FE695E695DE
:100CC000E695F0E0EE0FFF1FE05EFE4F21E030E022
:100CD000008002C0220F331F0A94E2F740912A02DB
:100CE000422B40932A02877090E0A0E0B1E0880F89
:100CF000991F880F991FFD01E80FF91FE381F0E0AC
:100D0000E65DFD4FA80FB91F808112969C91892B3B
:100D100080830895CF92DF92EF92FF920F931F93FB
:100D20008FB7807880932902C0B6E0E8F0E0D080E9
:100D3000A1E8B0E0FC90E6B200918400109185003B
:100D400084E080BF108281E88C93F8948FEB96E06A
:100D500075DFC0BED0928000F0928100E6BA109399
:100D60008500009384008FB790912902892B8FBF53
:100D70001F910F91FF90EF90DF90CF900895982FE3
:100D80008770A82FB0E0FD01EE0FFF1FEE0FFF1FD1
:100D9000E050FF4F0190F081E02D309749F0AA0F0D
:100DA000BB1FAA0FBB1FAE5FBE4F892F6C91099569
:100DB0008FB790912902892B8FBF0895AF92CF9260
:100DC000EF920F939C2DE091E801F0E073E0EE0FBD
:100DD000FF1F7A95E1F7DF01A751BE4F13962C93C1
:100DE0001397E351FE4F20912E0217962C931797DD
:100DF000477015968C93159716966C930370440F55
:100E0000440F440F042B0083E22FF0E09770E2942C
:100E1000EE0C30EEE3229E2983E0EE0FFF1F8A9551
:100E2000E1F7E259FE4F9083AA2011F09860908379
:100E30002F5F20932E020F91EF90CF90AF900895E7
:100E4000AF92CF92EF920F93AA24B8DF9091E8016E
:100E5000E92FF0E0A3E0EE0FFF1FAA95E1F7E351C1
:100E6000FE4F8081806880839F5F9093E8010F919F
:100E7000EF90CF90AF900895AF92CF92EF920F93F3
:100E8000AA24A3949BDF9091E801E92FF0E0B3E05E
:100E9000EE0FFF1FBA95E1F7E351FE4F80818064AA
:100EA00080839F5F9093E8010F91EF90CF90AF9078
:100EB00008956115710511F14F5F03C04150880F0E
:100EC000991F97FD06C04423C9F703C04F5F660F03
:100ED000771F77FFFBCF20E030E00CC0220F331FDD
:100EE0008617970720F0861B970B2F5F3F4F4150C7
:100EF00076956795442321F037FFF0CF2FEF3FEF32
:100F0000C9010895FB0123813481B6E03695279508
:100F1000BA95E1F7821B930B9C01808183FF0CC083
:100F2000213831051CF02050314006C08FEF2038A9
:100F3000380714F420503F4FC9010895A0E0B0E0F5
:100F4000E4EAF7E00C947C18E82FF0E073E0EE0F91
:100F5000FF1F7A95E1F7E751FE4FA781B0E063E00C
:100F6000AA0FBB1F6A95E1F7A259BE4FEC9058E05B
:100F7000C52EEC2006818581D02ED81AFD2CF39445
:100F8000182FC82FD0E019C0812F8FDBE12FF0E0A0
:100F9000181619064CF4EC1BFD0BEE0FFF1FE25860
:100FA000FE4F9183808308C0EC1BFD0BEE0FFF1FEB
:100FB000E258FE4F118210821F5F011728F710912F
:100FC0007E0100917F01E0E8F1E0812F902F9C01EC
:100FD000D90121E070E00BC080819181A817B90789
:100FE00010F0CD0101C0722F2F5F3296DC012F155A
:100FF00098F37723B9F4EE2021F460E040E050E06C
:101000001AC0EF2DF0E0EE0FFF1FE458FE4F4081B5
:10101000518180918001909181018417950750F44E
:1010200061E009C0E72FF0E0EE0FFF1FE458FE4F2C
:101030004081518160E07D1549F4EE2019F420E0F3
:1010400030E00CC0812F902F9C0108C0E72FF0E00A
:10105000EE0FFF1FE058FE4F20813181662341F0E3
:10106000C0E0D0E06E018F2D880F880FD82E06C00B
:10107000C0E0D0E06E01770F770FD72EE601C0E019
:101080004217530768F0CD01821B930BBC01621B12
:10109000730B640F751F4AE00CDF805094400AC048
:1010A000B901641B750BA41BB50BCB016A0F7B1F29
:1010B0004AE0FFDE9C012C0F3D1F52E0D52EDF14CD
:1010C00070F4EE2021F0C9016F2D70E005C06F2D86
:1010D00070E061507040C90140E0EBDE9C01C90145
:1010E00080709C7F892B11F02FEF33E0EE2029F0E8
:1010F00036952795369527951FC02636310518F465
:1011000060E070E003C0B9016656704080E090E096
:1011100028E33FE940E050E00E942B1821E196953A
:101120008795779567952A95D1F79B016F3F710554
:1011300019F010F02FEF30E0C901CDB7DEB7E8E0CD
:101140000C9498181F93E82FF0E013E0EE0FFF1FA8
:101150001A95E1F7E751FE4F1781F0DEE12FF0E03D
:10116000B3E0EE0FFF1FBA95E1F7E259FE4F208181
:10117000277092838183268325831782A6E0880FB8
:10118000991FAA95E1F7948383831F910895A0E0A6
:10119000B0E0EDECF8E00C947D18E82FF0E0A3E06F
:1011A000EE0FFF1FAA95E1F7E751FE4FD780C6DE8D
:1011B0007C01CD2DD0E0E3E0CC0FDD1FEA95E1F717
:1011C000C259DE4FBE019EDEAC0197FF03C05095B1
:1011D00041955F4F20E030E0E0E4F0E0CF01022EE7
:1011E00002C0969587950A94E2F78417950750F404
:1011F0008F81281710F4815003C0863040F48F5F30
:101200008F8305C02F5F3F4F2630310539F7188196
:10121000012F0770C701BE0175DE9C016F814B81F4
:101220005C81181619066CF476E0880F991F7A9580
:10123000E1F702C0969587956A95E2F7840F951FAE
:1012400012C088279927821B930B36E0880F991FBD
:101250003A95E1F702C0969587956A95E2F79A016B
:10126000281B390BC9019C838B8313FF03C09F7319
:101270009C838B8389819A81BE0144DE9C018D8190
:1012800090E0821793071CF40E831D820AC08E81A2
:1012900090E0909581959F4F281739075CF41E8246
:1012A0000D838B819C8126E0969587952A95E1F7A1
:1012B0009A8389834D2D50E0FA0183E0EE0FFF1FE2
:1012C0008A95E1F7E259FE4F2081229526952770F5
:1012D0002F5F88E090E0821B91092181328102C05A
:1012E000369527958A95E2F7FA01EE53FE4F81A1D4
:1012F00090E08217930751F021A38091E50190912E
:10130000E60184609093E6018093E501CDB7DEB7F6
:10131000E7E00C949918A0E0B0E0E1E9F9E00C9462
:101320007C1890E013E0880F991F1A95E1F7FC01F3
:10133000E751FE4FE680F62E00E010E050E0CC24AE
:10134000DD24C41AD50AEC01C351DE4F0CC08F2D29
:10135000ACD99C01C816D9061CF0888184608883AA
:10136000020F131FF394EF1490F7C801CDB7DEB747
:10137000E8E00C9498189C01285730402031310542
:1013800018F460E870E020C08837910554F4969511
:10139000982F88279795879568E770E00E944418F2
:1013A00013C08E3F91051CF06FEF70E00DC08858A0
:1013B00090409695982F88279795879567E770E0D6
:1013C0000E94441860587F4FCB010895AC014154EE
:1013D00050402091A2013091A301CA0174E0880F0E
:1013E000991F7A95E1F753FF02C080E090E0821BDD
:1013F000930B9595879595958795820F931F90935D
:101400009F0180939E019093A3018093A201AC0160
:10141000421B530B9A01215E3F4F2F33310568F475
:101420002091A5013091A601821B930B54E0959564
:1014300087955A95E1F7820F931F9093A6018093A9
:10144000A5012091A5013091A601359527953595E7
:10145000279537FF02C020E030E02038310514F036
:101460002FE730E0C901089508950895FC01DA01DD
:101470008C91813051F4E617F7078CF4CB01821B75
:101480009109E817F907A4F40FC06E177F07A4F4B9
:10149000CB01820F911D8E179F0754F403C06E1766
:1014A0007F0744F481E001C08FEF8C93CF01089552
:1014B000CB010895CF010895E617F707ACF3FACFF3
:1014C000E2ECF1E0A0E5B1E02D913C911197808133
:1014D000918154E0880F991F5A95E1F7821B930B75
:1014E0009595879595958795820F931F8D939D93DD
:1014F00024E0969587952A95E1F78193919381E071
:10150000E23DF80709F708951F920F920FB60F9268
:1015100011240F900FBE0F901F9018951F920F92DD
:101520000FB60F9211242F933F934F935F936F93B6
:101530007F938F939F93AF93BF93EF93FF938EB55A
:101540000E943417FF91EF91BF91AF919F918F91BE
:101550007F916F915F914F913F912F910F900FBEAF
:101560000F901F9018951F920F920FB60F92112493
:101570002F933F934F935F936F937F938F939F939B
:10158000AF93BF93EF93FF935E982091A401253012
:10159000A8F480913001843689F081E090E002C0A7
:1015A000880F991F2A95E2F780950E94E017E09135
:1015B000A401F0E0E257FE4F808104C080E00E9469
:1015C000E01780E00E94E0175E9A8091A4018F5F8F
:1015D0008093A40190913001981710F41092A40107
:1015E000FF91EF91BF91AF919F918F917F916F91FB
:1015F0005F914F913F912F910F900FBE0F901F90D1
:10160000189583E391E00C9484160C94FD020895E0
:10161000CF92EF920F931F9384B7877F84BF88E1A7
:101620000FB6F89480936000109260000FBE90E0B7
:1016300080E80FB6F89480936100909361000FBE2C
:101640005F9A0E9494173BD723E680913101281BB3
:1016500080E067E040E003E077E0E72ECC24F0DBB9
:101660000E94090380E69AE09093C1018093C00133
:101670001092BA0184E08093BD0181E08093BE01A5
:101680001092BC018FE08093BB011092B90183E0FE
:101690008093BF0180ED97E090938900809388004C
:1016A00080916F00826080936F00809181008260E2
:1016B000809381008091810088608093810085B54E
:1016C000836085BD84B5826084BD82E387BD8091DF
:1016D0006E00826080936E0078940091300184E106
:1016E0008093300110E0812F0E9434170E9417165A
:1016F00083E699E10197F1F700C000001F5F1F3FEB
:1017000091F70E94FD02549A5C9A4F9902C00E9480
:10171000B4170093300110929301239A1F910F91F7
:10172000EF90CF900895CF92DF92EF92FF920F93B8
:101730001F93DF93CF93CDB7DEB760970FB6F894C2
:10174000DEBF0FBECDBF80914C0190914D0105963B
:1017500090934D0180934C018CB58F778CBD86B5ED
:101760008F30E9F780914C0190914D010E94660203
:101770008CB580688CBD83EF91E00197F1F700C0D4
:1017800000008091E0019091E1012091D001309121
:10179000D101821B930B988B8F878091DE019091F2
:1017A000DF012091CE013091CF01821B930B9E87E8
:1017B0008D878091DC019091DD012091CC013091E9
:1017C000CD01821B930B9C878B878091DA019091CE
:1017D000DB012091CA013091CB01821B930B9A87C8
:1017E00089878091D8019091D9012091C8013091C9
:1017F000C901821B930B98878F838091D6019091AA
:10180000D7012091C6013091C701821B930B9E83A3
:101810008D838091D4019091D5012091C4013091A4
:10182000C501821B930B9C838B838091D201909185
:10183000D3012091C2013091C301821B930B9A8383
:1018400089838091E201882309F470C1FE013196F9
:10185000DF0190E080E02D913C911197492F50E0FD
:101860004217530714F4922FE82E8F5F1296883098
:1018700091F7109299011092980110929B01109289
:101880009A01CC24DD24FF24002711270E191F09FB
:1018900020E030E0A0E0B0E00330110534F4C701EF
:1018A000821B930B8330910514F0118210826081AA
:1018B0007181A60FB71FCB010E94191881939193D4
:1018C000C80ED91E2F5F3F4F0F5F1F4F28303105C5
:1018D00019F7B0939B01A0939A01D0929901C092FD
:1018E00098012B813C81B901882777FD8095982F3D
:1018F00022E230E040E050E00E942B187B018C0196
:1019000029813A81B901882777FD8095982F2BEF9F
:101910003FEF4FEF5FEF0E942B18E60EF71E081FF8
:10192000191F2D813E81B901882777FD8095982F59
:101930002CE430E040E050E00E942B18E60EF71E49
:10194000081F191F2F813885B901882777FD8095D9
:10195000982F20E730E040E050E00E942B18E60E80
:10196000F71E081F191F29853A85B901882777FDB9
:101970008095982F28E930E040E050E00E942B1835
:10198000E60EF71E081F191F2B853C85B901882715
:1019900077FD8095982F2AEB30E040E050E00E94E0
:1019A0002B18E60EF71E081F191F2D853E85B9015D
:1019B000882777FD8095982F26EE30E040E050E0B4
:1019C0000E942B18E60EF71E081F191F2F85388955
:1019D000B901882777FD8095982F26E031E040E017
:1019E00050E00E942B186E0D7F1D801F911F9601E5
:1019F000442737FD4095542F0E945718822F932F6C
:101A0000A42FB52F8F3F9105A105B10529F024F032
:101A10008FEF90E0A0E0B0E0B7FF03C080E090E07F
:101A2000DC01282F8093930180912401817021F0A3
:101A3000822F8095809393018091930190E0B4E090
:101A4000880F991FBA95E1F72091A9013091AA0159
:101A50004CEF2831340749F49093AA018093A901EF
:101A60009093A8018093A70128C0821B930B9595A2
:101A70008795820F931F9093AA018093A9012091CB
:101A8000A7013091A801AC01421B530B9A0190931E
:101A9000A8018093A701295E3F4F2F32310568F4DA
:101AA0002091A0013091A101821B930BF3E0959549
:101AB0008795FA95E1F7820F931F9093A101809388
:101AC000A001E090A001F090A101E4E0F594E7947A
:101AD000EA95E1F760919D01C70170E04CE351E0A8
:101AE00023E0C4DC80939D0160919C01C70170E0FC
:101AF0004DE351E021E0BADC80939C0190914E01CE
:101B0000981719F081E08093960180919C01809351
:101B10004E0180919501882329F481E080939601FC
:101B20008093970181E08093950117C08091950182
:101B3000813069F49091930190939D0190939C0161
:101B400010929501809396018093970106C088E1D9
:101B50009CEF9093AA018093A9018091E201809368
:101B6000940160960FB6F894DEBF0FBECDBFCF9143
:101B7000DF911F910F91FF90EF90DF90CF9008952C
:101B8000DF93CF9300D000D0CDB7DEB7962F9295DC
:101B9000907F9E609983606E6A83982F9170929572
:101BA000990F990F907C9B83982F96959C838F3FDC
:101BB00011F48FE78B8383E391E0BE016F5F7F4F6A
:101BC0000E9464160F900F900F900F90CF91DF91AD
:101BD0000895DF93CF9300D000D0CDB7DEB7942F18
:101BE0009295907F9860998340684A838B836C8339
:101BF00083E391E0BE016F5F7F4F0E9464160F90F8
:101C00000F900F900F90CF91DF910895DF93CF93B6
:101C100000D000D0CDB7DEB799E0998340694A8300
:101C20008B836C8383E391E0BE016F5F7F4F0E94E3
:101C300064160F900F900F900F90CF91DF91089541
:101C4000DF93CF9300D000D0CDB7DEB79BE0998370
:101C5000406B4A838B836C8383E391E0BE016F5FAB
:101C60007F4F0E9464160F900F900F900F90CF91AE
:101C7000DF910895CF93DF93C4E2D1E087E765E574
:101C800040E0DEDF69916F7787E740E0D9DF81E0F0
:101C9000C333D807B9F7DF91CF91089584E291E07B
:101CA00060E070E04FE050E00C94DF181F93F89470
:101CB00084E291E060E070E04FE050E00E94F718AD
:101CC000F999FECF60912E016F706F5B82ED90E00D
:101CD0000E940019F999FECF789410E080E00E94EC
:101CE000341780E090E0EFE3FFE13197F1F700C0B7
:101CF000000001968A309105B1F78FEF0E943417EA
:101D000080E090E0EFE3FFE13197F1F700C00000E1
:101D100001968A309105B1F71F5F1A30F9F61F91CD
:101D20000895CF93DF93EC018981803B09F0E9C0EE
:101D30006B81962F653608F094E68A81813709F425
:101D4000CFC0823798F48E3609F4D3C08F3638F47A
:101D50008B3609F4D4C08C3609F0D3C0CDC08F3691
:101D600009F4C4C0803709F0CCC0BDC0843709F481
:101D7000AEC0853738F4823709F4AFC0833709F035
:101D8000C0C0A8C0863709F491C0863708F492C055
:101D9000873709F0B6C070E0FB01E556F040EB3143
:101DA000F10508F0AEC0E65CFF4FEE0FFF1F059097
:101DB000F491E02D09940E94B417A3C080912401EE
:101DC0008E7F03C0809124018160809324018091E3
:101DD0009D010E94341795C080912401826013C038
:101DE000809124018D7F0FC08091240188600BC0F9
:101DF00080912401877F07C080912401846003C003
:101E0000809124018B7F809324017BC04FDF79C0B8
:101E100080912501826047C0809125018D7F43C05C
:101E20008091250181603FC0809125018E7F3BC05C
:101E300021DF67C00E94FD0264C080912501886097
:101E400032C080912501877F2EC08091250180615D
:101E50002AC0809125018F7E26C080912501846053
:101E600022C0809125018B7F1EC080912501806258
:101E70001AC0809125018F7D16C08DE661E340E098
:101E8000DFDE8DE66EE240E0DBDE8DE663E340E020
:101E9000D7DE8DE660E30BC080912501806403C02E
:101EA000809125018F7B809325012BC086E740E040
:101EB000C7DE27C0615080912E01603110F08F6025
:101EC00003C06F70807F862B80932E011AC0909381
:101ED000260117C09093270114C09093280111C0C8
:101EE000909329010EC090932A010BC060932B019F
:101EF00008C060932C0105C06093310102C060935B
:101F000032018981282F2F7090912E019F702917FF
:101F100009F042C0807F803B49F58A819091290178
:101F2000891711F48B8132C090912A018917A1F58C
:101F30008B8180932D018F5F86958695869511F410
:101F400084E611C0893010F094E104C0833030F091
:101F5000880F9DE1981B909330011EC0823011F4D0
:101F60008DE101C087E28093300116C09091250178
:101F7000917231F0803E81F48B81880F02D70CC0C2
:101F8000803931F48B81882331F08A81880F03C036
:101F9000803811F480E068D789818D3A99F48B817B
:101FA0008795882787959A819F77892B80938E01C3
:101FB0008B8186958F7390918F01907C892B809374
:101FC0008F013AC08E3A11F58A818295880F880F69
:101FD000807C90918F019F73892B80938F018B81DF
:101FE0008295880F807E9A81969596959F71892B10
:101FF000809390018B818695869586958F709091C0
:102000009101907F892B8093910116C08F3AA1F4A2
:102010008A818295807F909191019F70892B809316
:1020200091018B81880F880F880F88739A81929510
:102030009770892B80939201DF91CF910895CF9271
:10204000DF92EF92FF921F93DF93CF9300D000D0E7
:10205000CDB7DEB76BD722DEDBDA8AEB90E00E94E9
:10206000EF18863509F080D710E880E8C82ED12C0B
:102070007E010894E11CF11C4F9901C075D753DB18
:1020800080E090E007C0E3EFF1E03197F1F700C0A6
:102090000000019620914B0130E0821793079CF3DA
:1020A00080919401882321F480919701882371F015
:1020B00080912501982F947049F4817221F08091CC
:1020C0009D015FD603C080919D01CED6809197017E
:1020D000882309F477C01092970180919401882396
:1020E00009F044C080912401887079F040912E015C
:1020F0004F708091280160E0A3DD1092A30110923F
:10210000A2011092A6011092A50180912501817073
:1021100011F010919C0180912401847039F040915C
:102120002E014F708091270160E08ADD909125019A
:10213000892F827009F446C0892F807119F080912F
:102140004F0102C080912B0180934F01987021F0C4
:1021500060919C01669502C060912C0140912E0116
:102160004F7090E070E050E034DD2CC0809124018D
:10217000847039F040912E014F70809127016FE7F4
:102180005FDD90912501892F827009F487C0892F26
:10219000807121F080919C01869502C080912B0175
:1021A00080934F01987021F060919C01669502C068
:1021B00060912C0140912E014F7090E070E050E052
:1021C00025DD6CC0103809F1212F30E080913201FB
:1021D000482F50E0BA0160587F4F6217730714F41C
:1021E000181B09C0B601641B750B2617370714F0BE
:1021F00010E801C0180F812F90E0BDD860912E012A
:102200006F7070E0BDDC812FBCD580912401887097
:1022100081F080919401882361F080919A019091DE
:102220009B01D4D8682F40912E014F7080912801D6
:1022300007DD80919601882319F110929601809113
:102240002401827049F060919C01669540912E01B5
:102250004F7080912601F4DC80912501817281F01C
:1022600080919401882361F080919C0190E083D853
:1022700060912E016F7070E083DC02C0C70151DDF8
:1022800083E391E0B701E6D48823C1F783E391E0CB
:1022900000D583E391E012D5CAD4EECE10E8B5CFD5
:1022A000CF93DF93EA01923049F0933061F091309F
:1022B00049F522E130E08FE090E028C025E630E0EB
:1022C00081E290E023C0813069F0813018F08230E3
:1022D000C9F410C086E890E082D7282F30E086E865
:1022E00090E014C08AE890E07AD7282F30E08AE89E
:1022F00090E00CC088EB90E072D7282F30E088EB9C
:1023000090E004C020E030E080E090E09983888392
:10231000C901DF91CF910895982F2CC09093E900C7
:10232000981721F4242F762F50E006C07091EC000E
:102330002091ED005091F00021FF1BC03091EB0087
:102340003E7F3093EB003091ED0032703093ED0022
:102350003091EB0031603093EB007093EC002093F0
:10236000ED005093F0002091EE0027FD02C080E0C8
:1023700008959F5F953090F28093E90081E0089581
:102380008091AF0188239CF404C08091AE01882322
:10239000B9F08091E80082FFF8CF8091E8008B7758
:1023A0008093E80008958091AE01882349F08091E0
:1023B000E80080FFF8CF8091E8008E778093E800F6
:1023C00008952091E4003091E50084E69091EC00BE
:1023D0009170913029F49091E80090FF05C022C0DF
:1023E0009091E80092FD1EC09091AE01992311F4E6
:1023F00082E00895953011F483E008959091EB0008
:1024000095FF02C081E008954091E4005091E500FD
:1024100042175307D9F2882311F484E008958150BC
:102420009A01D4CF80E0089553D055D0E0EEF0E08B
:10243000808181608083E8EDF0E080818F77808308
:1024400019BCE3E6F0E08081816080831092AD01E9
:1024500008953ED040D08091D800982F9F779093D8
:10246000D80080688093D8008091D8008F7D8093B9
:10247000D80019BC89B5826089BD09B400FEFDCFC2
:102480001092AE011092AC011092AB0180E060E0BE
:1024900042E042DF8091E1008E7F8093E1008091F5
:1024A000E20081608093E2008091E2008860809386
:1024B000E2008091E0008E7F8093E0000895E3E6E3
:1024C000F0E080818E7F808381E08093AD01C1CF79
:1024D0001092E20008951092E10008951F920F9269
:1024E0000FB60F9211242F933F934F935F936F93E7
:1024F0007F938F939F93AF93BF93EF93FF938091BD
:10250000E10082FF0AC08091E20082FF06C0809154
:10251000E1008B7F8093E1000AD28091E10080FF8F
:1025200018C08091E20080FF14C08091E2008E7F8D
:102530008093E2008091E20080618093E2008091CC
:10254000D80080628093D80019BC1092AE010E941E
:10255000340A8091E10084FF2DC08091E20084FF65
:1025600029C019BC89B5826089BD09B400FEFDCFC0
:102570008091D8008F7D8093D8008091E1008F7E7C
:102580008093E1008091E2008F7E8093E200809151
:10259000E20081608093E2008091AC01882331F4F5
:1025A0008091E30087FD02C081E001C084E0809358
:1025B000AE012BD88091E10083FF22C08091E20020
:1025C00083FF1EC08091E100877F8093E10082E05D
:1025D0008093AE011092AC018091E1008E7F8093D8
:1025E000E1008091E2008E7F8093E2008091E20022
:1025F00080618093E20080E060E042E08DDE97D170
:10260000FF91EF91BF91AF919F918F917F916F91CA
:102610005F914F913F912F910F900FBE0F901F90A0
:1026200018950F931F93DF93CF93CDB7DEB7AC9779
:102630000FB6F894DEBF0FBECDBF8091F10080933E
:10264000AF018091F1008093B0019091F1008091F1
:10265000F100E1EBF1E09093B10181839091F10001
:102660008091F1009093B30183839091F100809168
:10267000F1009093B50185830E94350A8091E800AE
:1026800083FF3CC19091AF018091B001853009F486
:1026900089C0863040F48130C1F1813070F08330E0
:1026A00009F02CC132C0883009F4F9C0893009F42E
:1026B00008C1863009F022C19BC0903821F09238C1
:1026C00009F01CC108C08091AB01882311F082E0A1
:1026D00012C080E010C08091B30187708093E90040
:1026E0008091EB0090E025E0969587952A95E1F79B
:1026F00081701092E9009091E800977F9093E80034
:102700008093F1001092F100D5C0992319F0923016
:1027100009F0F4C0292F30E02F71307021153105F8
:1027200029F02230310509F0E9C00CC09091B101C7
:10273000913009F0E3C01092AB01833069F59093BA
:10274000AB012AC09091B101992331F59091B30169
:10275000977009F4D3C09093E9002091EB0020FF1B
:102760001BC0833021F48091EB00806213C0809104
:10277000EB0080618093EB0021E030E002C0220F8B
:10278000331F9A95E2F72093EA001092EA008091B5
:10279000EB0088608093EB001092E9008091E800E4
:1027A000877F8BC0992309F0A9C01091B1011F77D1
:1027B0000FB7F8948091E800877F8093E800E0DD10
:1027C0008091E80080FFFCCF8091E3008078812B2E
:1027D0008093E3008091E30080688093E3001123FD
:1027E00011F482E001C083E08093AE010FBF86C088
:1027F0009058923008F082C08091B1019091B2015E
:1028000023E08C3D920799F583E08C838AE28B83E9
:102810006FB7F894DE01159680E090E02EE071E24B
:10282000422F50E0FA0170935700349180FF03C0AB
:1028300032953F702F5F3F70432F50E03A3018F0D1
:10284000495C5F4F02C0405D5F4F4D935D930196C1
:102850008431910529F76FBF8091E800877F8093CD
:10286000E800CE0103966AE270E062D012C0609187
:10287000B301AE014F5F5F4F13DDBC01009709F458
:102880003DC08091E800877F8093E80089819A812C
:10289000AAD08091E8008B778093E8002FC0903811
:1028A00069F58091E800877F8093E8008091AC0112
:1028B0008093F1008091E8008E778093E80060DDDE
:1028C0001DC09923D9F49091B1019230B8F4809150
:1028D000E800877F8093E8009093AC0151DD809100
:1028E000AC01882331F48091E30087FD02C081E0D0
:1028F00001C084E08093AE010E94010B8091E8004A
:1029000083FF0AC08091EB0080628093EB0080918E
:10291000E800877F8093E800AC960FB6F894DEBF9E
:102920000FBECDBFCF91DF911F910F9108950895F4
:102930002091B5013091B6012617370718F4FC0134
:1029400040E03BC06115710511F09B01F8CF20916B
:10295000E8002E772093E80020E030E0F0CF80916F
:10296000AE018823E1F18530E1F18091E80083FF39
:1029700002C081E008958091E80082FD2AC0809124
:10298000E80080FF1AC08091F20090E006C04191FB
:102990004093F1002150304001962115310519F086
:1029A00088309105A0F340E08830910509F441E0BA
:1029B0009091E8009E779093E8002115310579F613
:1029C000442369F606C08091AE01882341F085302A
:1029D00041F08091E80082FFF6CF80E0089582E028
:1029E000089583E00895EF92FF920F931F93CF9382
:1029F000DF93C091B501D091B601C617D70720F477
:102A0000E82EF92E80E040C06115710511F0EB0150
:102A1000F7CF2091E8002E772093E800C0E0D0E0C7
:102A2000EFCF9091AE01992309F43FC0953009F49E
:102A30003EC09091E80093FF02C081E039C09091C0
:102A4000E80092FD2CC09091E80090FF1DC000911D
:102A5000F20010E00AC0C701C2D38093F1000894CD
:102A6000E11CF11C21970F5F1F4F209719F00830D0
:102A7000110588F380E00830110509F481E0909198
:102A8000E8009E779093E800209759F6882349F64E
:102A900006C08091AE01882341F0853041F08091DD
:102AA000E80082FFF6CF80E003C082E001C083E04F
:102AB000DF91CF911F910F91FF90EF9008958F922A
:102AC0009F92BF92CF92DF92EF92FF920F931F934C
:102AD000DF93CF930F92CDB7DEB7182F4B017A015A
:102AE00099836FDCB82E99818823B9F5012F192FAE
:102AF000E114F10439F0F70180819181881A990A73
:102B0000080F191FCC24DD2425C08091E80085FD25
:102B100016C08091E8008B778093E800E114F104FF
:102B200049F0F701808191818C0D9D1D91838083F7
:102B300085E014C07CD045DC882361F00FC0809113
:102B4000F100F80181938F0108948108910808949D
:102B5000C11CD11C81149104C1F68B2D0F90CF9113
:102B6000DF911F910F91FF90EF90DF90CF90BF907A
:102B70009F908F9008958F929F92BF92CF92DF92F5
:102B8000EF92FF920F931F93DF93CF930F92CDB7E6
:102B9000DEB7182F4B017A01998313DCB82E998187
:102BA0008823B9F5012F192FE114F10439F0F70149
:102BB00080819181881A990A080F191FCC24DD247D
:102BC00025C08091E80085FD16C08091E8008E77D1
:102BD0008093E800E114F10449F0F70180819181CC
:102BE0008C0D9D1D9183808385E014C020D0E9DB8E
:102BF000882361F00FC0F80181918F018093F1006B
:102C00000894810891080894C11CD11C8114910476
:102C1000C1F68B2D0F90CF91DF911F910F91FF90F7
:102C2000EF90DF90CF90BF909F908F9008951F936B
:102C30008091AE01882361F01091E9001092E900C3
:102C40008091E80083FF01C0ECDC17701093E9006D
:102C50001F910895FC01CB012091AE012430B9F4FD
:102C600025812093E9002091E80025FF10C064E051
:102C700070E040E050E023DF8091E80085FD05C072
:102C80008091E8008B778093E80081E0089580E0F0
:102C900008952091AE01243011F082E00895FC01E6
:102CA00081818093E9008091F200882331F0809146
:102CB000E8008E778093E80084CB08952091AE01E0
:102CC000243009F4E6CF0895FC01CB012091AE0138
:102CD000243011F082E008951092B8011092B701EB
:102CE00021812093E90064E070E040E050E043DFA0
:102CF000882349F49091E80095FD05C09091E80083
:102D00009E779093E80008951F93CF93DF93EC0193
:102D100011E08981181729F4EA81FB818C8161E037
:102D200007C08D811817E1F4EE81FF81888560E08E
:102D3000882311F440E001C044E028E030E080E066
:102D400003C08F5F220F331F2E173F07D0F3606839
:102D500042608295807F482B812FDEDA882321F024
:102D60001F5F1530B1F681E0DF91CF911F9108957B
:102D700090E066E270E05DD188569F4F892F90E029
:102D8000089590912401917009F08095F1DF982FBA
:102D90009770893028F010928E01803168F411C04C
:102DA0002FEF30E0082E02C0220F331F0A94E2F703
:102DB00020938E012FEF0DC010928F01893170F496
:102DC0000AC02FEF30E0092E02C0220F331F0A94F1
:102DD000E2F720938F011092910113C0803230F0FE
:102DE0002FEF20939101813288F40BC02FEF30E058
:102DF000092E02C0220F331F0A94E2F72095209378
:102E0000910110929201883168F00AC02FEF30E0F2
:102E100002C0220F331F9A95E2F72095209392016A
:102E20008CEF1FC0813110F48FE01BC0853158F04A
:102E30002FEF30E002C0220F331F9A95E2F7822F66
:102E400080958C7F0EC0833158F42FEF30E002C0A4
:102E5000220F331F9A95E2F72F7020939001089567
:102E60008CE080939001089583DF882359F41092B9
:102E70008E0110928F011092900110929101109288
:102E80009201089520912401217019F096E2981B77
:102E9000892F982F9695969596958770492F50E093
:102EA000222331F4EEE8F1E04E0F5F1F2FEF22C036
:102EB000EEE8F1E04E0F5F1F01C01192E417F50735
:102EC000E1F7E92FF0E0E257FE4F2FEF30E002C0CC
:102ED000220F331F8A95E2F720839F5F8FEF06C092
:102EE000E92FF0E0E257FE4F80839F5F9530C0F3FB
:102EF00008952193E417F507E1F7E92FF0E0E25791
:102F0000FE4F2FEF30E002C0220F331F8A95E2F709
:102F10002095208305C0E92FF0E0E257FE4F108294
:102F20009F5F9530C0F3089543C0089580912F02AC
:102F300090913002A0913102B091320285352AEA97
:102F400092072AEAA20725E5B20769F410922F0238
:102F5000109230021092310210923202E0913E0142
:102F6000F0913F01099508955FDAF89480E0EFE36E
:102F7000FFE13197F1F700C000008F5F8038B9F7AB
:102F800085E59AEAAAEAB5E580932F02909330028C
:102F9000A0933102B09332022CE088E190E00FB6AA
:102FA000F894A895809360000FBE20936000FFCF37
:102FB0008AB181668AB953988BB18E798BB908959D
:102FC00087FF02C05D9A01C05D98589A589886FFA5
:102FD00002C05D9A01C05D98589A589885FF02C05A
:102FE0005D9A01C05D98589A589884FF02C05D9A16
:102FF00001C05D98589A589883FF02C05D9A01C03D
:103000005D98589A589882FF02C05D9A01C05D98F9
:10301000589A589881FF02C05D9A01C05D98589AED
:10302000589880FF02C05D9A01C05D98589A5898E0
:1030300008955527002480FF02C0060E571F660F13
:10304000771F6115710521F096958795009799F77F
:10305000952F802D0895FF27EE27BB27AA2760FF15
:1030600004C0A20FB31FE41FF51F220F331F441F1C
:10307000551F969587957795679589F700977607F9
:1030800071F7CF01BD01089597FB092E07260AD0DD
:1030900077FD04D05ED006D000201AF470956195BB
:1030A0007F4F0895F6F7909581959F4F089597FB70
:1030B000092E05260ED057FD04D05FD00AD0001C83
:1030C00038F450954095309521953F4F4F4F5F4FC5
:1030D0000895F6F790958095709561957F4F8F4F85
:1030E0009F4F08952F923F924F925F926F927F92DF
:1030F0008F929F92AF92BF92CF92DF92EF92FF9208
:103100000F931F93CF93DF93CDB7DEB7CA1BDB0BB3
:103110000FB6F894DEBF0FBECDBF09942A88398858
:1031200048885F846E847D848C849B84AA84B9845F
:10313000C884DF80EE80FD800C811B81AA81B9816B
:10314000CE0FD11D0FB6F894DEBF0FBECDBFED017F
:103150000895AA1BBB1B51E107C0AA1FBB1FA617DE
:10316000B70710F0A61BB70B881F991F5A95A9F730
:1031700080959095BC01CD010895A1E21A2EAA1B5D
:10318000BB1BFD010DC0AA1FBB1FEE1FFF1FA21717
:10319000B307E407F50720F0A21BB30BE40BF50B14
:1031A000661F771F881F991F1A9469F7609570959D
:1031B000809590959B01AC01BD01CF010895DC0184
:1031C000CB01FC01F999FECF06C0F2BDE1BDF89A32
:1031D000319600B40D9241505040B8F70895F999D6
:1031E000FECF92BD81BDF89A992780B50895DC0184
:1031F000CB0102C02D9105D041505040D8F7089521
:10320000262FF999FECF1FBA92BD81BD20BD0FB602
:10321000F894FA9AF99A0FBE01960895F894FFCFA0
:10322000E2001001E2002001E2004001E200800122
:103230005801100258012002580140025801800232
:103240000204C2010200141112141540646400004B
:103250000840060102400000014000000101001C7E
:0A3260000140404040404040400063
:00000001FF
